:100000001FC043C042C041C040C03FC03EC03DC011
:100010003CC025C53AC039C038C0B8C436C035C0A8
:1000200034C033C032C031C030C02FC02EC02DC04C
:1000300071C51EC62AC029C028C027C026C05807BF
:1000400011241FBECFEFCDBFDFE3DEBF1EE3A0E074
:10005000BEE3E6E5F0E102C005900D92AE30B107D7
:10006000D9F72EE3AEE0BEE301C01D92AB3CB20770
:10007000E1F710E0C0E2D0E003C02197FE019CD779
:10008000CF31D107D1F79ED6A9C7BACF8F929F9211
:10009000AF92BF92CF92DF92EF92FF920F931F9396
:1000A000CF93DF93082FDB01CA01B901202F30E085
:1000B000F901EC5BFF4610811F3F09F488C02E5CFC
:1000C0003F46E901E881D0E2ED9FF0011124FC5F99
:1000D000EF0127962091033E021711F0168311833A
:1000E0004D01B12CA12CCC24CA94DC2C76016115D5
:1000F00071058105910551F0A5019D0106D724EFF9
:1001000031E040E050E010D769017A0160E072E12F
:100110008AE790E0A501940129D749015A01B594D5
:10012000A7949794879481E021E082169104A20617
:10013000B10440F0883031F0B694A7949794879436
:100140008F5FF2CF91E0891A9108A108B10881145C
:10015000910421E0A206B10428F088248A94982C06
:10016000A12CB12C813009F03FC01092400A81507F
:1001700061E070E001C0660F8A95EAF76093CA3EBD
:100180006093C93E80924C0A90924D0A1092410AA7
:1001900010924A0A10924B0A9FB7F8940093033EBC
:1001A00081E08093450AC093C73ED093C83E109328
:1001B000C63EC092C23ED092C33EE092C43EF09290
:1001C000C53E8091400A81608093400A9FBFDF91C5
:1001D000CF911F910F91FF90EF90DF90CF90BF9044
:1001E000AF909F908F90089592E09093400A815035
:1001F000BECF1092C23E1092C33E1092C43E1092E7
:10020000C53EE091C73EF091C83E8091C63E36970C
:1002100080838FEF8093033E0895E0E1F8E09185BD
:100220009066918792E09093AA3E8093A33E1092AD
:10023000A23E089581E08093A23E1092A33E909149
:100240001B0891FF10C01092B63EE091A03EF091C5
:10025000A13E09958093B53E85E08093AA3E83E058
:1002600080931A0808951092B73E8093B43E86E0BA
:10027000F4CFE091923EF091933E309741F010928E
:10028000913E1092903E09958091903E089580E0B5
:100290000895E0918E3EF0918F3E309759F0309165
:1002A0008D3E20918C3E321728F010928D3E809327
:1002B0008C3E099408950895E0918D3E80918C3E86
:1002C000E81730F4F0E0E459F14C808190E00895B3
:1002D0008FEF9FEF089590918D3E80918C3E2FEF90
:1002E0003FEF981748F4E92FF0E0E459F14C2081F2
:1002F00030E09F5F90938D3EC901089580918C3EC0
:1003000090918D3E891B990B0895CF92DF92EF92C9
:10031000FF920F931F93CF93DF937C018A01EB0130
:100320006B01C40ED51ECC15DD0551F06991D701C6
:10033000ED91FC910190F081E02DC7010995F3CF7B
:10034000C801DF91CF911F910F91FF90EF90DF9047
:10035000CF9008952091903E203240F021E030E08F
:10036000FC012283338390E080E008958091913EE8
:10037000E82FF0E0E45BF14C60838F5F8093913E67
:100380008093903E81E090E008952FB7F89480919B
:10039000BE3E9091BF3EA091C03EB091C13E2FBFE6
:1003A0008093483E9093493EA0934A3EB0934B3E83
:1003B0008091463E9091473E009731F00197A1F021
:1003C00060E884E99EE3C6CF6091053E84E99EE340
:1003D000C1DF8091053E8D7F8093053E8091053E73
:1003E0008B7F8093053E08954091023E50E066E287
:1003F0007EE384E99EE389DF1092463E1092473EF9
:1004000008958093263E81E08093023E0895CF9325
:10041000DF9381E090E08093463E9093473EC4E0B6
:10042000DEE38B81EEDF898182608983DF91CF916A
:100430000895CF93DF9381E090E08093463E9093C0
:10044000473EC4E0DEE38A81DCDF89818260898304
:10045000DF91CF910895CF93DF9381E090E0809377
:10046000463E9093473EC4E0DEE38981CADF89813E
:1004700082608983DF91CF910895CF93DF9381E0EC
:1004800090E08093463E9093473EC4E0DEE388814F
:10049000B8DF898182608983DF91CF9108951F93AE
:1004A000CF93DF93FC01608170E0762F6627818116
:1004B000680F711DC281D0E0DC2FCC272381C20FD1
:1004C000D11D1091003E61157105B9F48091033E74
:1004D000811301C08EDE8091033E181315C0DF9199
:1004E000CF911F9186CE123178F49E0150E040E00A
:1004F000812FDF91CF911F91C9CD2097A1F720E0E7
:1005000030E0A9011231A0F3DF91CF911F9108953E
:100510001F93CF93DF93EC01188181E090E0D9D451
:10052000181721F0612F81E090E0DBD4CE01DF913C
:10053000CF911F9108951F93CF93DF931F92CDB753
:10054000DEB7FC01808198EF980F903770F48093AC
:10055000083E11E01983CE010196DADF8091053E55
:1005600082608093053E10930D3E0F90DF91CF91F6
:100570001F9108951F93CF93DF93EC01188190E0B2
:1005800080E0A7D4181721F0612F90E080E0A9D473
:10059000CE01DF91CF911F910895CF93DF93EB01AF
:1005A00098D48883CE01DF91CF91089590E0FC012B
:1005B000EC5BFF4620812F3F79F08E5C9F46DC018B
:1005C000EC91B0E2EB9FF0011124FC5F9085922347
:1005D00081E019F480E008958FEF08951F93CF9381
:1005E000DF9300D01F92CDB7DEB7BE016D5F7F4FA6
:1005F00081E090E0D2DF8B818F3F29F481E0898315
:10060000CE01019685DF83E0D1DF11E0811110E09A
:1006100084E0CCDF811101C0126081E0C7DF81116D
:1006200001C0146087E0C2DF811101C01860185F4B
:10063000183019F48B81811183C01982CE01019683
:1006400067DF1093083E8091083EBE016E5F7F4FCA
:1006500090E0883008F481C08091083E883708F027
:100660007CC080E09ADF9091083E8A8198137AC01E
:10067000109213081092160821E02093150810928A
:100680001C081092190810921E081092AA3E10928F
:100690008D3E10928C3E1092913E1092903E809131
:1006A000AA3E81111FC083E08093260482E08093DC
:1006B000AA3E1092B73E1092B63E1092A23E109201
:1006C000A33E10920E3E1092B43E812F90E0880F10
:1006D000991F80931C0810921E0881EE80931908C0
:1006E0002093130889E391E08093A03E9093A13E6C
:1006F0008CE49EE38093AD3E9093AE3E89E491E01E
:100700008093B23E9093B33E8CE69EE38093AF3EDF
:100710009093B03E80E28093B13E85E694E0809372
:100720008E3E90938F3E85EC91E08093923E909325
:10073000933E2396CDBFDEBFDF91CF911F910895E9
:100740008091083E883008F47CCF8091083E88373D
:1007500008F077CF1091083E74CF80E01EDF8091C3
:10076000083E86CF8091083E8983CE01019602DF44
:100770007FCFCF93DF93282F30E0D901AC5BBF460A
:100780008C918F3FA1F1F901EE5CFF46E08190E290
:10079000E99FF0011124FC5F61112CC086839081D8
:1007A000892399F4E901C05EDF469881309721F1F1
:1007B0009F3F11F17096E90FF11D9FB7F89480816A
:1007C00061111DC0877F80839FBF225F3F46F90173
:1007D0008081882361F0803151F48C91853008F05C
:1007E000880F9091010A809589238093010ADF91F7
:1007F000CF9108958583D3CFF0E0E0E0DECF88602D
:10080000E2CFCF93DF93823198F490E0FC01EC5B70
:10081000FF4620812F3F61F0FC01EE5CFF46E08146
:1008200030E2E39FF0011124FC5F613021F4218369
:10083000DF91CF910895805E9F46EC01A881AF3F84
:1008400081F0CF014096A80FB92FB11D9FB7F89442
:1008500022838C91623041F488608C9325839FBF02
:10086000E7CFB0E0A0E0F2CF877F8C932683F7CF6D
:1008700061E08CE0C6DF61E08CE07BCFFC01808131
:10088000813009F4F5CF60E08CE0BBCFCF93FC0161
:10089000C081C330C0F460E080E1B3DF60E08EE08F
:1008A000B0DF60E08FE0ADDFEC2FF0E0EE0FFF1F78
:1008B000E052F047808191818093003E9093013E09
:1008C00061E0CF919ECFCF910895CF93DF932FB763
:1008D000F8948091BE3E9091BF3EA091C03EB091F1
:1008E000C13E2FBF8093483E9093493EA0934A3E1D
:1008F000B0934B3E1092243E1092253EE0E1FEE381
:1009000084E1DF011D928A95E9F7C0918C3E8091C8
:100910008D3EC8131CC0C6EEDFE8F0E9C130DF072A
:1009200091F1988180910F3E98130FC08091053E00
:100930008D7F8093053E8091053E84608093053EC7
:10094000E981FA8180E19EE309952396E6CF84E967
:100950009EE3C1DC80930F3E80918D3EC817A9F2C3
:1009600084E99EE3B8DC2091243E3091253EA90124
:100970004F5F5F4F4093243E5093253E205F314CA4
:10098000F9018083E9CFDF91CF9108951F920F92F3
:100990000FB60F9211244F935F936F937F938F93B2
:1009A0009F93AF93BF93EF93FF938091C93E815084
:1009B0008093C93E81112BC08091CA3E8093C93E6D
:1009C000E091C73EF091C83E8091C63E8083409141
:1009D000C23E5091C33E6091C43E7091C53E141614
:1009E0001506160617062CF58091C23E9091C33E5F
:1009F000A091C43EB091C53E0197A109B109809371
:100A0000C23E9093C33EA093C43EB093C53E81E0E6
:100A10008093460AFF91EF91BF91AF919F918F9183
:100A20007F916F915F914F910F900FBE0F901F902C
:100A300018954091C23E5091C33E6091C43E709162
:100A4000C53E452B462B472B11F7319780831092DB
:100A5000450A1092400A8FEF8093033ED8CF1F9231
:100A60000F920FB60F9211242F933F934F935F93E2
:100A70006F938F939F93AF93BF938091BE3E90915E
:100A8000BF3EA091C03EB091C13E4091BC3E50914E
:100A9000BD3E9A01285D3F4F283E63E0360798F53A
:100AA0000296A11DB11D2093BC3E3093BD3E8093A4
:100AB000BE3E9093BF3EA093C03EB093C13E809196
:100AC000B83E9091B93EA091BA3EB091BB3E01961E
:100AD000A11DB11D8093B83E9093B93EA093BA3E3C
:100AE000B093BB3E82E080930B0ABF91AF919F9180
:100AF0008F916F915F914F913F912F910F900FBE0A
:100B00000F901F9018959A01205C33400396A11D09
:100B1000B11DC9CF1F920F920FB60F9211242F93C0
:100B20003F934F935F936F937F938F939F93AF9375
:100B3000BF93CF93EF93FF93C0911B08C2FF09C0EF
:100B40001092B73E1092B63E1092B53E84E065DB3F
:100B500013C0C6FF2DC08091B43E813051F4809106
:100B6000B73EE091B23EF091B33E90E0099510920D
:100B7000B43EC0FF13C05EDBFF91EF91CF91BF91F8
:100B8000AF919F918F917F916F915F914F913F9125
:100B90002F910F900FBE0F901F90189580E48093B7
:100BA0001B0881E03ADB80911B0885FFE5CFE3CF8E
:100BB000C7FF5CC0C3FF08C01092B73E1092B63E9C
:100BC0001092B53E83E0C3CF809119088066809370
:100BD000190880911B0881FF2CC08091B63E8823A4
:100BE00049F080911B0884FF05C082E080931A08B9
:100BF00081E0ADCF9091B63E8091B53E9817A8F4B4
:100C0000E091B63E8091AD3E9091AE3EE80FF92F57
:100C1000F11D808180931D088091B63E8F5F809387
:100C2000B63E83E080931A08A7CF82E080931A082B
:100C30008ECF9091B73E8091B13E981790F48091FD
:100C40001D08E091B73E2091AF3E3091B03EE20FDB
:100C5000F32FF11D80838091B73E8F5F8093B73E65
:100C6000E0CF86E080931A0882E071CF85E06FCFF5
:100C70001F920F920FB60F9211242F938F939F9371
:100C8000EF93FF9380911508982F9C70C1F080918D
:100C9000150894E082FF93E09093AC3E8093150892
:100CA00081E08093AA3E1092AB3EFF91EF919F911D
:100CB0008F912F910F900FBE0F901F90189586FF68
:100CC00046C02091A63E9091A83E8091150884FFD1
:100CD00010C08091A73E882351F083E080931408D0
:100CE00085E08093AC3E1092AB3E81E02BC081E06A
:100CF000F5CF8091A53E821760F4E091A53EF0E02B
:100D00008081809318088091A53E8F5F8093A53ED7
:100D1000CCCF8091A93E891748F484E08093AA3E05
:100D20008091A43E816080931708BFCF8091A73E39
:100D3000882359F083E08093140881E08093AC3ECF
:100D40001092AB3E8093AA3EB0CF81E0F4CF87FFF4
:100D500037C09091A93E8091A83E9817A8F4809141
:100D60001808E091A93EF0E080838091A93E8F5F52
:100D70008093A93E9091A83E8091A93E8917C0F426
:100D800082E08093140891CF8091A73E882371F070
:100D900087E08093140882E08093AC3E1092AB3ED3
:100DA00081E08093AA3E1092A83E7FCF85E0F1CFEC
:100DB0008091A73E882311F087E0BDCF85E0BBCFAF
:100DC00086E08FCF91E088ED84BF9093610082E54B
:100DD0008093020680E18093050680E280930306FB
:100DE000809100068160809300069093030A8EEF45
:100DF0008093260A8093270A8BE08093000A8091D3
:100E00000A0A826080930A0A789461E080E0F9DC43
:100E100060E080E0AEDC62E083E0F3DC62E084E08E
:100E2000F0DC62E081E0EDDC62E087E0EADC61E0DA
:100E30008CE0E7DC1DDD80915000897F80935000BD
:100E40008091500081608093500068E07EE390E0E4
:100E500080E0A3DB8091083E8F3F31F488E08093EF
:100E6000083E88E09EE386DB8091083E883020F0D3
:100E70008091083E883730F088E08093083E88E013
:100E80009EE378DBABDB8091083E80910D3E8823AA
:100E900019F0A4DB10920D3E809150008160809388
:100EA00050008895809150008E7F80935000EDCF48
:100EB000E4E9FEE31282138288EE93E0A0E0B0E062
:100EC00084839583A683B78382E090E980839183AE
:100ED000089503D0808199270895FC01E050FC4ECD
:100EE0000895262FAF93BF93E0E0F0E1328131FD0A
:100EF000FDCFDC01A050BC4E2C932DE924BF23E094
:100F000020830196BF91AF910895DB018F939F934A
:100F100049D0BF91AF91A29F800D911DA39F900DCD
:100F2000B29F900D11240895A1E21A2EAA1BBB1B9B
:100F3000FD010DC0AA1FBB1FEE1FFF1FA217B307A5
:100F4000E407F50720F0A21BB30BE40BF50B661FBB
:100F5000771F881F991F1A9469F76095709580957F
:100F600090959B01AC01BD01CF010895052E97FB23
:100F700016F400940FD057FD05D0D6DF07FC02D041
:100F800046F408C050954095309521953F4F4F4FFE
:100F90005F4F089590958095709561957F4F8F4F25
:100FA0009F4F08950FD0A59F900DB49F900DA49FC3
:100FB000800D911D11240895EE0FFF1F0590F491EF
:100FC000E02D0994A29FB001B39FC001A39F01D05F
:100FD000B29F700D811D1124911D0895F894FFCFCB
:100FE00010000E000F00113D02012B020219020336
:100FF0000702049B02054F02064604073E04000058
:101000000000AA0185017E016B015C015B011010EB
:101010000000000000101010000000000000100090
:101020000405060705040302010000010203010292
:10103000030000000000010101010101020202029F
:10104000000000001020408020100804020101026E
:061050000408020408017F
:0E1056000F0001FF5100010008000000010121
:00000001FF
