:100000003EC000006DC000006BC0000069C0000071
:1000100067C0000065C0000063C0000061C0000050
:100020005FC000005DC000005BC0000059C0000060
:1000300057C00000F0C4000053C0000051C50000CC
:100040004FC000004DC000004BC0000049C0000080
:1000500047C0000045C0000043C0000041C0000090
:100060009AC500003DC000003BC0000039C0000040
:1000700037C0000035C0000033C00000DF06112487
:100080001FBECFEFCDBFDFE3DEBF80914000809386
:100090004000811105C098ED21E094BF20934100FC
:1000A0008CBB18E3A0E0B8E3ECE3FFE002C00590EE
:1000B0000D92AE30B107D9F728E3AEE0B8E301C046
:1000C0001D92A33BB207E1F710E0CFE3D0E003C0FD
:1000D0002197FE01E0D6CE33D107D1F7F3D5F0C694
:1000E0008FCFE0917138F0917238309731F0809174
:1000F0006C38882311F090E0099408958F929F92B4
:10010000AF92BF92CF92DF92EF92FF920F931F9325
:10011000CF93DF93D82F4B01CA01B9010D2F10E007
:10012000F801E65DF047C081CF3F09F498C0B12CDB
:10013000A12CCC24CA94DC2C7601611571058105B3
:10014000910551F0A50194014FD624EF31E040E034
:1001500050E059D669017A0160E072E18AE790E0E7
:10016000A501940172D649015A01B594A7949794B8
:1001700087948114910481E0A806B1048CF4109254
:10018000400A80E091E089169104A906B10468F064
:10019000863059F0B694A794979487948F5FF2CFE6
:1001A00082E08093400A8FEFEDCF91E0891A9108A9
:1001B000A108B1088114910491E0A906B10428F0C6
:1001C00088248A94982CA12CB12C90910338D917AB
:1001D00001F1909103389F3F41F0E0915C38F0913C
:1001E0005D3890915B3831979083F801E85EF04775
:1001F000E08190E2E99FF0011124FC5FC0935B383D
:10020000BF01695F7F4F60935C3870935D38C68330
:10021000C183C0925738D0925838E0925938F09242
:100220005A3861E070E001C0660F8A95EAF7609382
:1002300056386093553880924C0A90924D0A10922D
:10024000410A10924A0A10924B0AD093033881E077
:100250008093450A8091400A81608093400ADF9133
:10026000CF911F910F91FF90EF90DF90CF90BF90B3
:10027000AF909F908F900895E0E4FAE0108215828D
:100280008FEF868380930338E0915C38F0915D387E
:1002900080915B38319780830895CF93CFB7F894DE
:1002A00010925738109258381092593810925A3884
:1002B0008FEF80930338E0DFCFBFCF910895DC014B
:1002C0001896ED91FC9184818860848308959C0147
:1002D0002B5C3F4FDC011F96EC911F971E968C9173
:1002E000E81730F4E20FF32FF11D808190E00895BC
:1002F0008FEF9FEF0895FC01DC01D59697858685E9
:10030000981740F4A90FB11D2C919F5F9787822FFA
:1003100090E008958FEF9FEF0895FC018685978503
:10032000891B990B0895CF92DF92EF92FF920F9362
:100330001F93CF936C014132510510F040E250E021
:10034000C42F7B0110E000E00C1780F4D7016D9101
:100350007D01D601ED91FC910190F081E02DC60167
:10036000099598012F5F3F4F892B49F4C801CF9120
:100370001F910F91FF90EF90DF90CF90089589012A
:10038000E3CFFC01A585A03258F4A80FB92FB11D09
:1003900055966C9385858F5F858781E090E0089501
:1003A00090E080E0089590E080E00895E82FCB0190
:1003B000F0E0FC5E2081FB01208308952FB7F894C4
:1003C0008091513890915238A0915338B09154385F
:1003D0002FBF8093473890934838A0934938B09303
:1003E0004A388091453890914638009731F001970E
:1003F000A1F060E88EE598E3C4CF609105388EE502
:1004000098E3BFDF809105388D7F80930538809118
:1004100005388B7F8093053808954091023850E06D
:1004200065E278E38EE598E37EDF1092453810921E
:10043000463808958093253881E0809302380895E6
:10044000CF93DF9381E090E08093453890934638D6
:10045000C4E0D8E38B81EEDF898182608983DF91FC
:10046000CF910895CF93DF9381E090E0809345385A
:1004700090934638C4E0D8E38A81DCDF89818260CA
:100480008983DF91CF910895CF93DF9381E090E04E
:100490008093453890934638C4E0D8E38981CADF19
:1004A000898182608983DF91CF910895CF93DF9313
:1004B00081E090E08093453890934638C4E0D8E3DB
:1004C0008881B8DF898182608983DF91CF91089527
:1004D0001F93CF93DF93FC01608170E0762F662736
:1004E0008181680F711DC281D0E0DC2FCC27238170
:1004F000C20FD11D1091003861157105B9F48091BA
:100500000338811301C0C9DE80910338181315C068
:10051000DF91CF911F91C1CE123178F49E0150E04E
:1005200040E0812FDF91CF911F91E8CD2097A1F777
:1005300020E030E0A9011231A0F3DF91CF911F91AB
:100540000895FC01A081B0E0BC5EE0E0F0E10FB6F0
:1005500022812370E9F7F8946C936DE964BF63E03E
:1005600060830FBE08950F931F93CF93DF931F9265
:10057000CDB7DEB78C0181E08983F801608180917D
:100580000114681719F0CE010196DBDFC8010F9046
:10059000DF91CF911F910F9108951F93CF93DF9318
:1005A0001F92CDB7DEB7FC01808198EF980F90378E
:1005B00070F48093083811E01983CE010196D3DFDF
:1005C0008091053882608093053810930D380F9024
:1005D000DF91CF911F9108950F931F93CF93DF93D6
:1005E0001F92CDB7DEB78C011982FC01608180912A
:1005F0000014681719F0CE010196A3DFC8010F900F
:10060000DF91CF911F910F91089590E0FC01E65D7D
:10061000F04720812F3F79F0885E9047DC01EC9114
:10062000B0E2EB9FF0011124FC5F9085922381E002
:1006300019F480E008958FEF0895CF93DF93282F6A
:1006400030E0D901A65DB0478C918F3FC1F1F9012F
:10065000E85EF047E08190E2E99FF0011124FC5F41
:10066000611130C086839081892399F4E901CA5FC2
:10067000D0479881309741F1983030F57096E90F66
:10068000F11D9FB7F8948081611121C0877F80831D
:100690009FBF2C503147F9019081992381F08C91B3
:1006A0009037D1F09038A9F0903149F4853008F0B6
:1006B000880F9091010A809589238093010ADF9128
:1006C000CF9108958583CFCFF0E0E0E0DACF886066
:1006D000DECF1092A006F3CF20E4823009F420E8A8
:1006E0009091920A922359F36FB7F8949091800AEF
:1006F0009E7F9093800A4091920A30E02095309539
:1007000050E02423352398ED94BF2093920A9091D2
:100710008E0A90FFFCCF9091800A91609093800A9E
:10072000813039F4809150048F77809350046FBFEB
:10073000C6CF809151048F7780935104F8CF8231D6
:10074000F0F490E0FC01E65DF04720812F3FB9F026
:10075000FC01E85EF047E081E295EE0FF0E0F46026
:1007600060FF0EC021838A5F9047DC018C9180611D
:10077000E80FF11D808161FF05C0886080830895C6
:100780002283F1CF877FFACF61E08CE0D8DF61E090
:100790008CE053CFFC018081813009F4F5CF60E01B
:1007A0008CE0CDCFCF93FC01C081C330C0F460E0BA
:1007B00080E1C5DF60E08EE0C2DF60E08FE0BFDF98
:1007C000EC2FF0E0EE0FFF1FEC53F1478081918199
:1007D000809300389093013861E0CF91B0CFCF91F2
:1007E00008951F93CF93DF9300D01F92CDB7DEB74C
:1007F000BE016D5F7F4F81E0D9DD8B818F3F29F492
:1008000081E08983CE010196AEDE83E0FEDE11E059
:10081000811110E084E0F9DE811101C0126081E0F5
:10082000F4DE811101C0146087E0EFDE81116CC03D
:100830001860185F1982CE01019695DE1093083872
:1008400080910838BE016E5F7F4F883008F470C019
:1008500080910838883708F06BC080E0A7DD909160
:1008600008388A81981369C08091683885FF0BC069
:10087000E0916638F091673813821682809168386B
:100880008F7D809368388091683886FF0CC0E09136
:100890006638F0916738148611861686809168381C
:1008A0008F7B809368388091683885FD1AC086FDFB
:1008B00018C08091010284FF47C086E0809306043F
:1008C00080916838806480936838E0916638F09150
:1008D0006738812F90E0880F991F8487168681EEF4
:1008E000818788EA94E080937138909372388EED16
:1008F00091E080936F38909370382396CDBFDEBF20
:10090000DF91CF911F910895111193CF8B818111A8
:1009100002C01CE58FCF80910838883038F0809174
:100920000838883718F41091083888CF1CE586CF2E
:1009300080E03CDD8091083897CF8091083889832A
:10094000CE01019649DE90CF83E080932604B8CF94
:10095000CF93DF932FB7F89480915138909152380C
:10096000A0915338B09154382FBF8093473890935B
:100970004838A0934938B0934A38109223381092DF
:100980002438EFE0F8E384E1DF011D928A95E9F76E
:1009900090916C3880916D3898131CC0CAECDEE8D9
:1009A000FEE8C53EDF07A1F1988180910E389813CB
:1009B0000FC0809105388D7F809305388091053870
:1009C000846080930538E981FA818FE098E3099586
:1009D0002396E6CF8EE598E38EDC80930E389091D7
:1009E0006C3880916D38981799F28EE598E383DC26
:1009F0002091233830912438A9014F5F5F4F4093F5
:100A0000233850932438215F374CF9018083E7CF96
:100A1000DF91CF9108951F920F920FB60F9211247C
:100A20002F933F934F935F936F937F938F939F93F6
:100A3000AF93BF93EF93FF9380915538815080938C
:100A4000553881112BC08091563880935538E091EC
:100A50005C38F0915D3880915B38808380915738A5
:100A600090915838A0915938B0915A3818161906F3
:100A70001A061B063CF58091573890915838A09182
:100A80005938B0915A380197A109B1098093573864
:100A900090935838A0935938B0935A3881E0809396
:100AA000460AFF91EF91BF91AF919F918F917F91F6
:100AB0006F915F914F913F912F910F900FBE0F90CB
:100AC0001F9018958091573890915838A0915938B7
:100AD000B0915A38892B8A2B8B2B01F7CDDBDECFD7
:100AE0001F920F920FB60F9211242F933F934F93A3
:100AF0005F936F938F939F93AF93BF938091513880
:100B000090915238A0915338B091543840914F3859
:100B1000509150389A012C5E3F4F283E63E03607D3
:100B200098F50196A11DB11D20934F383093503890
:100B30008093513890935238A0935338B0935438DF
:100B400080914B3890914C38A0914D38B0914E38EF
:100B50000196A11DB11D80934B3890934C38A09302
:100B60004D38B0934E3881E080938D0ABF91AF919C
:100B70009F918F916F915F914F913F912F910F9026
:100B80000FBE0F901F9018959A01245D3340029676
:100B9000A11DB11DC9CF1F920F920FB60F92112444
:100BA0002F933F934F935F936F937F938F939F9375
:100BB000AF93BF93EF93FF93E0916638F09167385E
:100BC000938596FF36C090FF1CC0858580936A3858
:100BD00091FF11C086DA10926B3810926E38E09156
:100BE0006F38F0917038309709F00995E0916638C8
:100BF000F091673804C010926C3810926D3883E021
:100C000048C080E483876DDA10926B3810926C389C
:100C1000FF91EF91BF91AF919F918F917F916F91D4
:100C20005F914F913F912F910F900FBE0F901F90AA
:100C3000189597FFEDCF91FF2EC08091683893FDF6
:100C400004C094FF0AC087FF08C08F77809368387C
:100C500082E0828710926B38DBCF8068809368389F
:100C6000809169388F5F80936938A0916E38809148
:100C70006B38A81768F4B0E0AD58B74C8C918587F5
:100C800083E0828780916E388F5F80936E38C0CF0B
:100C900082E08287BDCF958580916C38803258F490
:100CA000E82FF0E0ED56F74C908380916C388F5F21
:100CB00080936C389BCF86E0828710926C381092BC
:100CC0006D38A6CF81E098ED94BF8093610092E5E6
:100CD000909302069AE09093050690E290930306A3
:100CE000809300068093030A9EEF9093260A9093C8
:100CF000270A9BE09093000A2DEF31E02093AE0A83
:100D00003093AF0A1092810A90E89093820A809300
:100D10008C0A81E18093800A789461E080E00FDDA5
:100D200060E080E08ADC62E083E009DD62E084E08C
:100D300006DD62E081E003DD62E087E000DD61E086
:100D40008CE0FDDC21DD80915000897F8093500094
:100D50008091500081608093500068E078E380E0EB
:100D600025DB809108388F3F31F48CE5809308387B
:100D700088E098E331DC80910838883020F0809159
:100D80000838883730F08CE58093083888E098E39D
:100D900023DC27DD8091083880910D38882319F0F5
:100DA00020DD10920D3880915000816080935000BA
:100DB0008895809150008E7F80935000EDCFEEE5B6
:100DC000F8E31282138288EE93E0A0E0B0E084831F
:100DD0009583A683B78386EE9EE88083918380E126
:100DE00098E0808791870895DB018F939F9349D086
:100DF000BF91AF91A29F800D911DA39F900DB29FB7
:100E0000900D11240895A1E21A2EAA1BBB1BFD010F
:100E10000DC0AA1FBB1FEE1FFF1FA217B307E407D9
:100E2000F50720F0A21BB30BE40BF50B661F771F31
:100E3000881F991F1A9469F7609570958095909511
:100E40009B01AC01BD01CF010895052E97FB16F45F
:100E500000940FD057FD05D0D6DF07FC02D046F432
:100E600008C050954095309521953F4F4F4F5F4FAB
:100E7000089590958095709561957F4F8F4F9F4F06
:100E800008950FD0A59F900DB49F900DA49F800D45
:100E9000911D11240895EE0FFF1F0590F491E02D90
:100EA0000994A29FB001B39FC001A39F700D811D43
:100EB0001124911DB29F700D811D1124911D089563
:040EC000F894FFCFD4
:100EC40010000E000F001156020144020232020308
:100ED400200204CD0205680206D20307CA030000FB
:100EE4000000C1019301D3015F018D017B01670102
:100EF400101080000000001010107070000000003E
:100F040010000405060705040302010000010203A2
:100F140001020300000000000101010101010202BD
:100F2400020200000000102040802010080402018A
:080F3400010204080204080197
:0E0F3C000F0001FF510001015C0000000101E7
:00000001FF
